{
  "contractName": "ItemManager",
  "abi": [
    {
      "anonymous": false,
      "inputs": [
        {
          "indexed": true,
          "internalType": "address",
          "name": "previousOwner",
          "type": "address"
        },
        {
          "indexed": true,
          "internalType": "address",
          "name": "newOwner",
          "type": "address"
        }
      ],
      "name": "OwnershipTransferred",
      "type": "event"
    },
    {
      "anonymous": false,
      "inputs": [
        {
          "indexed": false,
          "internalType": "uint256",
          "name": "_itemIndex",
          "type": "uint256"
        },
        {
          "indexed": false,
          "internalType": "uint256",
          "name": "_step",
          "type": "uint256"
        },
        {
          "indexed": false,
          "internalType": "address",
          "name": "_itemAddress",
          "type": "address"
        }
      ],
      "name": "SupplyChainStep",
      "type": "event"
    },
    {
      "inputs": [
        {
          "internalType": "uint256",
          "name": "",
          "type": "uint256"
        }
      ],
      "name": "items",
      "outputs": [
        {
          "internalType": "contract Item",
          "name": "_item",
          "type": "address"
        },
        {
          "internalType": "string",
          "name": "_identifier",
          "type": "string"
        },
        {
          "internalType": "uint256",
          "name": "_itemPrice",
          "type": "uint256"
        },
        {
          "internalType": "enum ItemManager.SupplyChainState",
          "name": "_state",
          "type": "uint8"
        }
      ],
      "stateMutability": "view",
      "type": "function"
    },
    {
      "inputs": [],
      "name": "owner",
      "outputs": [
        {
          "internalType": "address",
          "name": "",
          "type": "address"
        }
      ],
      "stateMutability": "view",
      "type": "function"
    },
    {
      "inputs": [],
      "name": "renounceOwnership",
      "outputs": [],
      "stateMutability": "pure",
      "type": "function"
    },
    {
      "inputs": [
        {
          "internalType": "address",
          "name": "_address",
          "type": "address"
        }
      ],
      "name": "transferOwnership",
      "outputs": [],
      "stateMutability": "pure",
      "type": "function"
    },
    {
      "inputs": [
        {
          "internalType": "string",
          "name": "_identifier",
          "type": "string"
        },
        {
          "internalType": "uint256",
          "name": "_itemPrice",
          "type": "uint256"
        }
      ],
      "name": "createItem",
      "outputs": [],
      "stateMutability": "nonpayable",
      "type": "function"
    },
    {
      "inputs": [
        {
          "internalType": "uint256",
          "name": "_itemIndex",
          "type": "uint256"
        }
      ],
      "name": "triggerPayment",
      "outputs": [],
      "stateMutability": "payable",
      "type": "function"
    },
    {
      "inputs": [
        {
          "internalType": "uint256",
          "name": "_itemIndex",
          "type": "uint256"
        }
      ],
      "name": "triggerDelivery",
      "outputs": [],
      "stateMutability": "nonpayable",
      "type": "function"
    }
  ],
  "bytecode": "0x608060405234801561001057600080fd5b5061002d61002261003260201b60201c565b61003a60201b60201c565b6100fe565b600033905090565b60008060009054906101000a900473ffffffffffffffffffffffffffffffffffffffff169050816000806101000a81548173ffffffffffffffffffffffffffffffffffffffff021916908373ffffffffffffffffffffffffffffffffffffffff1602179055508173ffffffffffffffffffffffffffffffffffffffff168173ffffffffffffffffffffffffffffffffffffffff167f8be0079c531659141344cd1fd0a4f28419497f9722a3daafe3b4186f6b6457e060405160405180910390a35050565b611a708061010d6000396000f3fe6080604052600436106200007a5760003560e01c80638da5cb5b11620000555780638da5cb5b14620000e7578063bfb231d21462000117578063cd31831e146200015e578063f2fde38b146200018c576200007a565b8063715018a6146200007f578063800fb83f14620000995780638c55174214620000b9575b600080fd5b3480156200008c57600080fd5b5062000097620001ba565b005b620000b76004803603810190620000b1919062000b7c565b620001f7565b005b348015620000c657600080fd5b50620000e56004803603810190620000df919062000b16565b620003d4565b005b348015620000f457600080fd5b50620000ff62000619565b6040516200010e919062000d07565b60405180910390f35b3480156200012457600080fd5b506200014360048036038101906200013d919062000b7c565b62000642565b60405162000155949392919062000d61565b60405180910390f35b3480156200016b57600080fd5b506200018a600480360381019062000184919062000b7c565b6200072f565b005b3480156200019957600080fd5b50620001b86004803603810190620001b2919062000ae4565b62000935565b005b6040517f08c379a0000000000000000000000000000000000000000000000000000000008152600401620001ee9062000db5565b60405180910390fd5b3460016000838152602001908152602001600020600201541462000252576040517f08c379a0000000000000000000000000000000000000000000000000000000008152600401620002499062000e3d565b60405180910390fd5b60006002811115620002695762000268620010fc565b5b6001600083815260200190815260200160002060030160009054906101000a900460ff166002811115620002a257620002a1620010fc565b5b14620002e5576040517f08c379a0000000000000000000000000000000000000000000000000000000008152600401620002dc9062000dd7565b60405180910390fd5b600180600083815260200190815260200160002060030160006101000a81548160ff02191690836002811115620003215762000320620010fc565b5b02179055507fa4035636e99f06b7651a604c1019fa4e8779fe68ef27eeb74dff2de348f6199b816001600084815260200190815260200160002060030160009054906101000a900460ff166002811115620003815762000380620010fc565b5b6001600085815260200190815260200160002060000160009054906101000a900473ffffffffffffffffffffffffffffffffffffffff16604051620003c99392919062000e5f565b60405180910390a150565b620003de62000972565b73ffffffffffffffffffffffffffffffffffffffff16620003fe62000619565b73ffffffffffffffffffffffffffffffffffffffff161462000457576040517f08c379a00000000000000000000000000000000000000000000000000000000081526004016200044e9062000e1b565b60405180910390fd5b600030826002546040516200046c906200097a565b6200047a9392919062000d24565b604051809103906000f08015801562000497573d6000803e3d6000fd5b5090508060016000600254815260200190815260200160002060000160006101000a81548173ffffffffffffffffffffffffffffffffffffffff021916908373ffffffffffffffffffffffffffffffffffffffff1602179055508260016000600254815260200190815260200160002060010190805190602001906200051f92919062000988565b508160016000600254815260200190815260200160002060020181905550600060016000600254815260200190815260200160002060030160006101000a81548160ff021916908360028111156200057c576200057b620010fc565b5b02179055507fa4035636e99f06b7651a604c1019fa4e8779fe68ef27eeb74dff2de348f6199b60025460016000600254815260200190815260200160002060030160009054906101000a900460ff166002811115620005e057620005df620010fc565b5b83604051620005f29392919062000e5f565b60405180910390a1600260008154809291906200060f906200107f565b9190505550505050565b60008060009054906101000a900473ffffffffffffffffffffffffffffffffffffffff16905090565b60016020528060005260406000206000915090508060000160009054906101000a900473ffffffffffffffffffffffffffffffffffffffff16908060010180546200068d9062001013565b80601f0160208091040260200160405190810160405280929190818152602001828054620006bb9062001013565b80156200070c5780601f10620006e0576101008083540402835291602001916200070c565b820191906000526020600020905b815481529060010190602001808311620006ee57829003601f168201915b5050505050908060020154908060030160009054906101000a900460ff16905084565b6200073962000972565b73ffffffffffffffffffffffffffffffffffffffff166200075962000619565b73ffffffffffffffffffffffffffffffffffffffff1614620007b2576040517f08c379a0000000000000000000000000000000000000000000000000000000008152600401620007a99062000e1b565b60405180910390fd5b60016002811115620007c957620007c8620010fc565b5b6001600083815260200190815260200160002060030160009054906101000a900460ff166002811115620008025762000801620010fc565b5b1462000845576040517f08c379a00000000000000000000000000000000000000000000000000000000081526004016200083c9062000dd7565b60405180910390fd5b60026001600083815260200190815260200160002060030160006101000a81548160ff02191690836002811115620008825762000881620010fc565b5b02179055507fa4035636e99f06b7651a604c1019fa4e8779fe68ef27eeb74dff2de348f6199b816001600084815260200190815260200160002060030160009054906101000a900460ff166002811115620008e257620008e1620010fc565b5b6001600085815260200190815260200160002060000160009054906101000a900473ffffffffffffffffffffffffffffffffffffffff166040516200092a9392919062000e5f565b60405180910390a150565b6040517f08c379a0000000000000000000000000000000000000000000000000000000008152600401620009699062000df9565b60405180910390fd5b600033905090565b61077480620012c783390190565b828054620009969062001013565b90600052602060002090601f016020900481019282620009ba576000855562000a06565b82601f10620009d557805160ff191683800117855562000a06565b8280016001018555821562000a06579182015b8281111562000a05578251825591602001919060010190620009e8565b5b50905062000a15919062000a19565b5090565b5b8082111562000a3457600081600090555060010162000a1a565b5090565b600062000a4f62000a498462000ec5565b62000e9c565b90508281526020810184848401111562000a6e5762000a6d6200118e565b5b62000a7b84828562000fce565b509392505050565b60008135905062000a948162001292565b92915050565b600082601f83011262000ab25762000ab162001189565b5b813562000ac484826020860162000a38565b91505092915050565b60008135905062000ade81620012ac565b92915050565b60006020828403121562000afd5762000afc62001198565b5b600062000b0d8482850162000a83565b91505092915050565b6000806040838503121562000b305762000b2f62001198565b5b600083013567ffffffffffffffff81111562000b515762000b5062001193565b5b62000b5f8582860162000a9a565b925050602062000b728582860162000acd565b9150509250929050565b60006020828403121562000b955762000b9462001198565b5b600062000ba58482850162000acd565b91505092915050565b62000bb98162000f17565b82525050565b62000bca8162000f6a565b82525050565b62000bdb8162000f92565b82525050565b62000bec8162000fba565b82525050565b600062000bff8262000efb565b62000c0b818562000f06565b935062000c1d81856020860162000fdd565b62000c28816200119d565b840191505092915050565b600062000c42601f8362000f06565b915062000c4f82620011ae565b602082019050919050565b600062000c69601d8362000f06565b915062000c7682620011d7565b602082019050919050565b600062000c90601f8362000f06565b915062000c9d8262001200565b602082019050919050565b600062000cb760208362000f06565b915062000cc48262001229565b602082019050919050565b600062000cde60208362000f06565b915062000ceb8262001252565b602082019050919050565b62000d018162000f60565b82525050565b600060208201905062000d1e600083018462000bae565b92915050565b600060608201905062000d3b600083018662000bbf565b62000d4a602083018562000cf6565b62000d59604083018462000cf6565b949350505050565b600060808201905062000d78600083018762000bd0565b818103602083015262000d8c818662000bf2565b905062000d9d604083018562000cf6565b62000dac606083018462000be1565b95945050505050565b6000602082019050818103600083015262000dd08162000c33565b9050919050565b6000602082019050818103600083015262000df28162000c5a565b9050919050565b6000602082019050818103600083015262000e148162000c81565b9050919050565b6000602082019050818103600083015262000e368162000ca8565b9050919050565b6000602082019050818103600083015262000e588162000ccf565b9050919050565b600060608201905062000e76600083018662000cf6565b62000e85602083018562000cf6565b62000e94604083018462000bae565b949350505050565b600062000ea862000ebb565b905062000eb6828262001049565b919050565b6000604051905090565b600067ffffffffffffffff82111562000ee35762000ee26200115a565b5b62000eee826200119d565b9050602081019050919050565b600081519050919050565b600082825260208201905092915050565b600062000f248262000f40565b9050919050565b600081905062000f3b826200127b565b919050565b600073ffffffffffffffffffffffffffffffffffffffff82169050919050565b6000819050919050565b600062000f778262000f7e565b9050919050565b600062000f8b8262000f40565b9050919050565b600062000f9f8262000fa6565b9050919050565b600062000fb38262000f40565b9050919050565b600062000fc78262000f2b565b9050919050565b82818337600083830152505050565b60005b8381101562000ffd57808201518184015260208101905062000fe0565b838111156200100d576000848401525b50505050565b600060028204905060018216806200102c57607f821691505b602082108114156200104357620010426200112b565b5b50919050565b62001054826200119d565b810181811067ffffffffffffffff821117156200107657620010756200115a565b5b80604052505050565b60006200108c8262000f60565b91507fffffffffffffffffffffffffffffffffffffffffffffffffffffffffffffffff821415620010c257620010c1620010cd565b5b600182019050919050565b7f4e487b7100000000000000000000000000000000000000000000000000000000600052601160045260246000fd5b7f4e487b7100000000000000000000000000000000000000000000000000000000600052602160045260246000fd5b7f4e487b7100000000000000000000000000000000000000000000000000000000600052602260045260246000fd5b7f4e487b7100000000000000000000000000000000000000000000000000000000600052604160045260246000fd5b600080fd5b600080fd5b600080fd5b600080fd5b6000601f19601f8301169050919050565b7f43616e206e6f742072656e6f756e63654f776e65727368697020686572652100600082015250565b7f4974656d206973206675727468657220696e2074686520636861696e2e000000600082015250565b7f43616e206e6f74207472616e736665724f776e65727368697020686572652100600082015250565b7f4f776e61626c653a2063616c6c6572206973206e6f7420746865206f776e6572600082015250565b7f4f6e6c792066756c6c207061796d656e7473206172652061636365707465642e600082015250565b600381106200128f576200128e620010fc565b5b50565b6200129d8162000f17565b8114620012a957600080fd5b50565b620012b78162000f60565b8114620012c357600080fd5b5056fe608060405234801561001057600080fd5b50604051610774380380610774833981810160405281019061003291906100b3565b816000819055508060028190555082600360006101000a81548173ffffffffffffffffffffffffffffffffffffffff021916908373ffffffffffffffffffffffffffffffffffffffff160217905550505050610187565b60008151905061009881610159565b92915050565b6000815190506100ad81610170565b92915050565b6000806000606084860312156100cc576100cb610154565b5b60006100da86828701610089565b93505060206100eb8682870161009e565b92505060406100fc8682870161009e565b9150509250925092565b60006101118261012a565b9050919050565b600061012382610106565b9050919050565b600073ffffffffffffffffffffffffffffffffffffffff82169050919050565b6000819050919050565b600080fd5b61016281610118565b811461016d57600080fd5b50565b6101798161014a565b811461018457600080fd5b50565b6105de806101966000396000f3fe6080604052600436106100385760003560e01c80632986c0e5146102505780633c8da5881461027b57806389794d00146102a657610241565b3661024157600060015414610082576040517f08c379a0000000000000000000000000000000000000000000000000000000008152600401610079906103c3565b60405180910390fd5b34600054146100c6576040517f08c379a00000000000000000000000000000000000000000000000000000000081526004016100bd906103a3565b60405180910390fd5b34600160008282546100d89190610445565b925050819055506000600360009054906101000a900473ffffffffffffffffffffffffffffffffffffffff1673ffffffffffffffffffffffffffffffffffffffff163460025460405160240161012e9190610403565b6040516020818303038152906040527f800fb83f000000000000000000000000000000000000000000000000000000007bffffffffffffffffffffffffffffffffffffffffffffffffffffffff19166020820180517bffffffffffffffffffffffffffffffffffffffffffffffffffffffff83818316178352505050506040516101b8919061038c565b60006040518083038185875af1925050503d80600081146101f5576040519150601f19603f3d011682016040523d82523d6000602084013e6101fa565b606091505b505090508061023e576040517f08c379a0000000000000000000000000000000000000000000000000000000008152600401610235906103e3565b60405180910390fd5b50005b34801561024d57600080fd5b50005b34801561025c57600080fd5b506102656102d1565b6040516102729190610403565b60405180910390f35b34801561028757600080fd5b506102906102d7565b60405161029d9190610403565b60405180910390f35b3480156102b257600080fd5b506102bb6102dd565b6040516102c89190610403565b60405180910390f35b60025481565b60005481565b60015481565b60006102ee8261041e565b6102f88185610429565b93506103088185602086016104a5565b80840191505092915050565b6000610321601b83610434565b915061032c82610507565b602082019050919050565b6000610344601583610434565b915061034f82610530565b602082019050919050565b6000610367602e83610434565b915061037282610559565b604082019050919050565b6103868161049b565b82525050565b600061039882846102e3565b915081905092915050565b600060208201905081810360008301526103bc81610314565b9050919050565b600060208201905081810360008301526103dc81610337565b9050919050565b600060208201905081810360008301526103fc8161035a565b9050919050565b6000602082019050610418600083018461037d565b92915050565b600081519050919050565b600081905092915050565b600082825260208201905092915050565b60006104508261049b565b915061045b8361049b565b9250827fffffffffffffffffffffffffffffffffffffffffffffffffffffffffffffffff038211156104905761048f6104d8565b5b828201905092915050565b6000819050919050565b60005b838110156104c35780820151818401526020810190506104a8565b838111156104d2576000848401525b50505050565b7f4e487b7100000000000000000000000000000000000000000000000000000000600052601160045260246000fd5b7f4f6e6c792066756c6c207061796d656e747320616c6c6f7765642e0000000000600082015250565b7f4974656d20697320616c726561647920706169642e0000000000000000000000600082015250565b7f546865207472616e73616374696f6e20776173206e6f7420737563636573736660008201527f756c2c2063616e63656c696e672e00000000000000000000000000000000000060208201525056fea26469706673582212208865aeed67c5a18f2a100688c6c99a01e7bdbc33243e43b1f4220605b00106f564736f6c63430008060033a2646970667358221220b3392bd879d3b258c52f8e1f7dbd74078a3fcff6dfd30c0b3da380437b2cbab064736f6c63430008060033",
  "immutableReferences": {},
  "source": "pragma solidity ^0.8.4;\r\n\r\nimport \"@openzeppelin/contracts/access/Ownable.sol\";\r\nimport \"./Item.sol\";\r\n\r\ncontract ItemManager is Ownable {\r\n    function renounceOwnership() public pure override {\r\n        revert(\"Can not renounceOwnership here!\");\r\n    }\r\n\r\n    function transferOwnership(address _address) public pure override {\r\n        revert(\"Can not transferOwnership here!\");\r\n    }\r\n\r\n    enum SupplyChainState {\r\n        Created,\r\n        Paid,\r\n        Delivered\r\n    }\r\n\r\n    struct S_Item {\r\n        Item _item;\r\n        string _identifier;\r\n        uint256 _itemPrice;\r\n        ItemManager.SupplyChainState _state;\r\n    }\r\n\r\n    mapping(uint256 => S_Item) public items;\r\n    uint256 itemIndex;\r\n\r\n    event SupplyChainStep(\r\n        uint256 _itemIndex,\r\n        uint256 _step,\r\n        address _itemAddress\r\n    );\r\n\r\n    function createItem(string memory _identifier, uint256 _itemPrice)\r\n        public\r\n        onlyOwner\r\n    {\r\n        Item item = new Item(this, _itemPrice, itemIndex);\r\n        items[itemIndex]._item = item;\r\n        items[itemIndex]._identifier = _identifier;\r\n        items[itemIndex]._itemPrice = _itemPrice;\r\n        items[itemIndex]._state = SupplyChainState.Created;\r\n        emit SupplyChainStep(\r\n            itemIndex,\r\n            uint256(items[itemIndex]._state),\r\n            address(item)\r\n        );\r\n        itemIndex++;\r\n    }\r\n\r\n    function triggerPayment(uint256 _itemIndex) public payable {\r\n        require(\r\n            items[_itemIndex]._itemPrice == msg.value,\r\n            \"Only full payments are accepted.\"\r\n        );\r\n        require(\r\n            items[_itemIndex]._state == SupplyChainState.Created,\r\n            \"Item is further in the chain.\"\r\n        );\r\n        items[_itemIndex]._state = SupplyChainState.Paid;\r\n\r\n        emit SupplyChainStep(\r\n            _itemIndex,\r\n            uint256(items[_itemIndex]._state),\r\n            address(items[_itemIndex]._item)\r\n        );\r\n    }\r\n\r\n    function triggerDelivery(uint256 _itemIndex) public onlyOwner {\r\n        require(\r\n            items[_itemIndex]._state == SupplyChainState.Paid,\r\n            \"Item is further in the chain.\"\r\n        );\r\n        items[_itemIndex]._state = SupplyChainState.Delivered;\r\n\r\n        emit SupplyChainStep(\r\n            _itemIndex,\r\n            uint256(items[_itemIndex]._state),\r\n            address(items[_itemIndex]._item)\r\n        );\r\n    }\r\n}\r\n",
  "sourcePath": "D:/Google Drive/Cursos/Blockchain/Ethereum Blockchain Developer Bootcamp With Solidity/Supply Chain/contracts/ItemManager.sol",
  "compiler": {
    "name": "solc",
    "version": "0.8.6+commit.11564f7e.Emscripten.clang"
  },
  "schemaVersion": "3.4.1",
  "updatedAt": "2021-07-12T23:23:24.184Z",
  "devdoc": {
    "kind": "dev",
    "methods": {
      "owner()": {
        "details": "Returns the address of the current owner."
      },
      "renounceOwnership()": {
        "details": "Leaves the contract without owner. It will not be possible to call `onlyOwner` functions anymore. Can only be called by the current owner. NOTE: Renouncing ownership will leave the contract without an owner, thereby removing any functionality that is only available to the owner."
      }
    },
    "version": 1
  },
  "userdoc": {
    "kind": "user",
    "methods": {},
    "version": 1
  }
}